{
  "_format": "hh-sol-artifact-1",
  "contractName": "UserVault",
  "sourceName": "contracts/UserVault.sol",
  "abi": [
    {
      "inputs": [
        {
          "internalType": "string",
          "name": "uid",
          "type": "string"
        },
        {
          "internalType": "string",
          "name": "name",
          "type": "string"
        },
        {
          "internalType": "string",
          "name": "document_type",
          "type": "string"
        },
        {
          "internalType": "string",
          "name": "size",
          "type": "string"
        }
      ],
      "name": "createDocument",
      "outputs": [],
      "stateMutability": "payable",
      "type": "function"
    },
    {
      "inputs": [
        {
          "internalType": "string",
          "name": "uid",
          "type": "string"
        },
        {
          "internalType": "string",
          "name": "name",
          "type": "string"
        },
        {
          "internalType": "string",
          "name": "image_type",
          "type": "string"
        },
        {
          "internalType": "string",
          "name": "size",
          "type": "string"
        }
      ],
      "name": "createImage",
      "outputs": [],
      "stateMutability": "payable",
      "type": "function"
    },
    {
      "inputs": [
        {
          "internalType": "string",
          "name": "uid",
          "type": "string"
        },
        {
          "internalType": "string",
          "name": "hash",
          "type": "string"
        },
        {
          "internalType": "string",
          "name": "url",
          "type": "string"
        },
        {
          "internalType": "string",
          "name": "username",
          "type": "string"
        },
        {
          "internalType": "string",
          "name": "size",
          "type": "string"
        }
      ],
      "name": "createPassword",
      "outputs": [],
      "stateMutability": "payable",
      "type": "function"
    },
    {
      "inputs": [
        {
          "internalType": "string",
          "name": "uid",
          "type": "string"
        }
      ],
      "name": "deleteDocument",
      "outputs": [],
      "stateMutability": "payable",
      "type": "function"
    },
    {
      "inputs": [
        {
          "internalType": "string",
          "name": "uid",
          "type": "string"
        }
      ],
      "name": "deleteImage",
      "outputs": [],
      "stateMutability": "payable",
      "type": "function"
    },
    {
      "inputs": [
        {
          "internalType": "string",
          "name": "uid",
          "type": "string"
        }
      ],
      "name": "deletePassword",
      "outputs": [],
      "stateMutability": "payable",
      "type": "function"
    },
    {
      "inputs": [
        {
          "internalType": "string",
          "name": "uid",
          "type": "string"
        },
        {
          "internalType": "string",
          "name": "hash",
          "type": "string"
        },
        {
          "internalType": "string",
          "name": "url",
          "type": "string"
        },
        {
          "internalType": "string",
          "name": "username",
          "type": "string"
        },
        {
          "internalType": "string",
          "name": "size",
          "type": "string"
        }
      ],
      "name": "editPassword",
      "outputs": [],
      "stateMutability": "payable",
      "type": "function"
    },
    {
      "inputs": [
        {
          "internalType": "string",
          "name": "uid",
          "type": "string"
        }
      ],
      "name": "getDocument",
      "outputs": [
        {
          "components": [
            {
              "internalType": "string",
              "name": "name",
              "type": "string"
            },
            {
              "internalType": "string",
              "name": "document_type",
              "type": "string"
            }
          ],
          "internalType": "struct UserVault.Document",
          "name": "",
          "type": "tuple"
        }
      ],
      "stateMutability": "view",
      "type": "function"
    },
    {
      "inputs": [],
      "name": "getFiles",
      "outputs": [
        {
          "components": [
            {
              "internalType": "address",
              "name": "owner",
              "type": "address"
            },
            {
              "internalType": "string",
              "name": "name",
              "type": "string"
            },
            {
              "internalType": "string",
              "name": "uid",
              "type": "string"
            },
            {
              "internalType": "string",
              "name": "file_type",
              "type": "string"
            },
            {
              "internalType": "string",
              "name": "size",
              "type": "string"
            }
          ],
          "internalType": "struct UserVault.File[]",
          "name": "",
          "type": "tuple[]"
        }
      ],
      "stateMutability": "view",
      "type": "function"
    },
    {
      "inputs": [
        {
          "internalType": "string",
          "name": "uid",
          "type": "string"
        }
      ],
      "name": "getImage",
      "outputs": [
        {
          "components": [
            {
              "internalType": "string",
              "name": "name",
              "type": "string"
            },
            {
              "internalType": "string",
              "name": "image_type",
              "type": "string"
            }
          ],
          "internalType": "struct UserVault.Image",
          "name": "",
          "type": "tuple"
        }
      ],
      "stateMutability": "view",
      "type": "function"
    },
    {
      "inputs": [
        {
          "internalType": "string",
          "name": "uid",
          "type": "string"
        }
      ],
      "name": "getPassword",
      "outputs": [
        {
          "components": [
            {
              "internalType": "string",
              "name": "hash",
              "type": "string"
            },
            {
              "internalType": "string",
              "name": "url",
              "type": "string"
            },
            {
              "internalType": "string",
              "name": "username",
              "type": "string"
            }
          ],
          "internalType": "struct UserVault.Password",
          "name": "",
          "type": "tuple"
        }
      ],
      "stateMutability": "view",
      "type": "function"
    }
  ],
  "bytecode": "0x608060405234801561001057600080fd5b506124ee806100206000396000f3fe60806040526004361061009c5760003560e01c80637ccb6a64116100645780637ccb6a641461015d5780637e196f111461019a5780637fd12d94146101b6578063814eca5d146101d2578063e802bf7d146101ee578063f980299d1461022b5761009c565b806301b8c31c146100a157806310a2288f146100de5780631e2de337146100fa5780632da96d7314610116578063635994f814610141575b600080fd5b3480156100ad57600080fd5b506100c860048036038101906100c39190611c7f565b610247565b6040516100d591906121f8565b60405180910390f35b6100f860048036038101906100f39190611d83565b610435565b005b610114600480360381019061010f9190611c7f565b610669565b005b34801561012257600080fd5b5061012b6108cf565b6040516101389190612192565b60405180910390f35b61015b60048036038101906101569190611c7f565b610c08565b005b34801561016957600080fd5b50610184600480360381019061017f9190611c7f565b610e6e565b60405161019191906121b4565b60405180910390f35b6101b460048036038101906101af9190611cc0565b610fca565b005b6101d060048036038101906101cb9190611cc0565b6111e4565b005b6101ec60048036038101906101e79190611c7f565b6113fe565b005b3480156101fa57600080fd5b5061021560048036038101906102109190611c7f565b611681565b60405161022291906121d6565b60405180910390f35b61024560048036038101906102409190611d83565b6117dd565b005b61024f611a9a565b60018260405161025f919061217b565b90815260200160405180910390206040518060600160405290816000820180546102889061236e565b80601f01602080910402602001604051908101604052809291908181526020018280546102b49061236e565b80156103015780601f106102d657610100808354040283529160200191610301565b820191906000526020600020905b8154815290600101906020018083116102e457829003601f168201915b5050505050815260200160018201805461031a9061236e565b80601f01602080910402602001604051908101604052809291908181526020018280546103469061236e565b80156103935780601f1061036857610100808354040283529160200191610393565b820191906000526020600020905b81548152906001019060200180831161037657829003601f168201915b505050505081526020016002820180546103ac9061236e565b80601f01602080910402602001604051908101604052809291908181526020018280546103d89061236e565b80156104255780601f106103fa57610100808354040283529160200191610425565b820191906000526020600020905b81548152906001019060200180831161040857829003601f168201915b5050505050815250509050919050565b6000600186604051610447919061217b565b908152602001604051809103902090508481600001908051906020019061046f929190611abb565b5083816001019080519060200190610488929190611abb565b50828160020190805190602001906104a1929190611abb565b506104aa611b41565b33816000019073ffffffffffffffffffffffffffffffffffffffff16908173ffffffffffffffffffffffffffffffffffffffff16815250508481602001819052508681604001819052506040518060400160405280600881526020017f70617373776f726400000000000000000000000000000000000000000000000081525081606001819052508281608001819052506000803373ffffffffffffffffffffffffffffffffffffffff1673ffffffffffffffffffffffffffffffffffffffff16815260200190815260200160002081908060018154018082558091505060019003906000526020600020906005020160009091909190915060008201518160000160006101000a81548173ffffffffffffffffffffffffffffffffffffffff021916908373ffffffffffffffffffffffffffffffffffffffff1602179055506020820151816001019080519060200190610606929190611abb565b506040820151816002019080519060200190610623929190611abb565b506060820151816003019080519060200190610640929190611abb565b50608082015181600401908051906020019061065d929190611abb565b50505050505050505050565b6000805b6000803373ffffffffffffffffffffffffffffffffffffffff1673ffffffffffffffffffffffffffffffffffffffff168152602001908152602001600020805490508110156107775782805190602001206000803373ffffffffffffffffffffffffffffffffffffffff1673ffffffffffffffffffffffffffffffffffffffff1681526020019081526020016000208281548110610734577f4e487b7100000000000000000000000000000000000000000000000000000000600052603260045260246000fd5b90600052602060002090600502016002016040516107529190612164565b60405180910390201415610764578091505b808061076f906123d1565b91505061066d565b506000803373ffffffffffffffffffffffffffffffffffffffff1673ffffffffffffffffffffffffffffffffffffffff16815260200190815260200160002081815481106107ee577f4e487b7100000000000000000000000000000000000000000000000000000000600052603260045260246000fd5b9060005260206000209060050201600080820160006101000a81549073ffffffffffffffffffffffffffffffffffffffff02191690556001820160006108349190611b86565b6002820160006108449190611b86565b6003820160006108549190611b86565b6004820160006108649190611b86565b505061086e611bc6565b8060028460405161087f919061217b565b908152602001604051809103902060008201518160000190805190602001906108a9929190611abb565b5060208201518160010190805190602001906108c6929190611abb565b50905050505050565b60606000803373ffffffffffffffffffffffffffffffffffffffff1673ffffffffffffffffffffffffffffffffffffffff168152602001908152602001600020805480602002602001604051908101604052809291908181526020016000905b82821015610bff57838290600052602060002090600502016040518060a00160405290816000820160009054906101000a900473ffffffffffffffffffffffffffffffffffffffff1673ffffffffffffffffffffffffffffffffffffffff1673ffffffffffffffffffffffffffffffffffffffff1681526020016001820180546109b89061236e565b80601f01602080910402602001604051908101604052809291908181526020018280546109e49061236e565b8015610a315780601f10610a0657610100808354040283529160200191610a31565b820191906000526020600020905b815481529060010190602001808311610a1457829003601f168201915b50505050508152602001600282018054610a4a9061236e565b80601f0160208091040260200160405190810160405280929190818152602001828054610a769061236e565b8015610ac35780601f10610a9857610100808354040283529160200191610ac3565b820191906000526020600020905b815481529060010190602001808311610aa657829003601f168201915b50505050508152602001600382018054610adc9061236e565b80601f0160208091040260200160405190810160405280929190818152602001828054610b089061236e565b8015610b555780601f10610b2a57610100808354040283529160200191610b55565b820191906000526020600020905b815481529060010190602001808311610b3857829003601f168201915b50505050508152602001600482018054610b6e9061236e565b80601f0160208091040260200160405190810160405280929190818152602001828054610b9a9061236e565b8015610be75780601f10610bbc57610100808354040283529160200191610be7565b820191906000526020600020905b815481529060010190602001808311610bca57829003601f168201915b5050505050815250508152602001906001019061092f565b50505050905090565b6000805b6000803373ffffffffffffffffffffffffffffffffffffffff1673ffffffffffffffffffffffffffffffffffffffff16815260200190815260200160002080549050811015610d165782805190602001206000803373ffffffffffffffffffffffffffffffffffffffff1673ffffffffffffffffffffffffffffffffffffffff1681526020019081526020016000208281548110610cd3577f4e487b7100000000000000000000000000000000000000000000000000000000600052603260045260246000fd5b9060005260206000209060050201600201604051610cf19190612164565b60405180910390201415610d03578091505b8080610d0e906123d1565b915050610c0c565b506000803373ffffffffffffffffffffffffffffffffffffffff1673ffffffffffffffffffffffffffffffffffffffff1681526020019081526020016000208181548110610d8d577f4e487b7100000000000000000000000000000000000000000000000000000000600052603260045260246000fd5b9060005260206000209060050201600080820160006101000a81549073ffffffffffffffffffffffffffffffffffffffff0219169055600182016000610dd39190611b86565b600282016000610de39190611b86565b600382016000610df39190611b86565b600482016000610e039190611b86565b5050610e0d611be0565b80600384604051610e1e919061217b565b90815260200160405180910390206000820151816000019080519060200190610e48929190611abb565b506020820151816001019080519060200190610e65929190611abb565b50905050505050565b610e76611be0565b600382604051610e86919061217b565b9081526020016040518091039020604051806040016040529081600082018054610eaf9061236e565b80601f0160208091040260200160405190810160405280929190818152602001828054610edb9061236e565b8015610f285780601f10610efd57610100808354040283529160200191610f28565b820191906000526020600020905b815481529060010190602001808311610f0b57829003601f168201915b50505050508152602001600182018054610f419061236e565b80601f0160208091040260200160405190810160405280929190818152602001828054610f6d9061236e565b8015610fba5780601f10610f8f57610100808354040283529160200191610fba565b820191906000526020600020905b815481529060010190602001808311610f9d57829003601f168201915b5050505050815250509050919050565b6000600285604051610fdc919061217b565b9081526020016040518091039020905083816000019080519060200190611004929190611abb565b508281600101908051906020019061101d929190611abb565b50611026611b41565b33816000019073ffffffffffffffffffffffffffffffffffffffff16908173ffffffffffffffffffffffffffffffffffffffff16815250508481602001819052508581604001819052506040518060400160405280600581526020017f696d61676500000000000000000000000000000000000000000000000000000081525081606001819052508281608001819052506000803373ffffffffffffffffffffffffffffffffffffffff1673ffffffffffffffffffffffffffffffffffffffff16815260200190815260200160002081908060018154018082558091505060019003906000526020600020906005020160009091909190915060008201518160000160006101000a81548173ffffffffffffffffffffffffffffffffffffffff021916908373ffffffffffffffffffffffffffffffffffffffff1602179055506020820151816001019080519060200190611182929190611abb565b50604082015181600201908051906020019061119f929190611abb565b5060608201518160030190805190602001906111bc929190611abb565b5060808201518160040190805190602001906111d9929190611abb565b505050505050505050565b60006003856040516111f6919061217b565b908152602001604051809103902090508381600001908051906020019061121e929190611abb565b5082816001019080519060200190611237929190611abb565b50611240611b41565b33816000019073ffffffffffffffffffffffffffffffffffffffff16908173ffffffffffffffffffffffffffffffffffffffff16815250508481602001819052508581604001819052506040518060400160405280600881526020017f646f63756d656e7400000000000000000000000000000000000000000000000081525081606001819052508281608001819052506000803373ffffffffffffffffffffffffffffffffffffffff1673ffffffffffffffffffffffffffffffffffffffff16815260200190815260200160002081908060018154018082558091505060019003906000526020600020906005020160009091909190915060008201518160000160006101000a81548173ffffffffffffffffffffffffffffffffffffffff021916908373ffffffffffffffffffffffffffffffffffffffff160217905550602082015181600101908051906020019061139c929190611abb565b5060408201518160020190805190602001906113b9929190611abb565b5060608201518160030190805190602001906113d6929190611abb565b5060808201518160040190805190602001906113f3929190611abb565b505050505050505050565b6000805b6000803373ffffffffffffffffffffffffffffffffffffffff1673ffffffffffffffffffffffffffffffffffffffff1681526020019081526020016000208054905081101561150c5782805190602001206000803373ffffffffffffffffffffffffffffffffffffffff1673ffffffffffffffffffffffffffffffffffffffff16815260200190815260200160002082815481106114c9577f4e487b7100000000000000000000000000000000000000000000000000000000600052603260045260246000fd5b90600052602060002090600502016002016040516114e79190612164565b604051809103902014156114f9578091505b8080611504906123d1565b915050611402565b506000803373ffffffffffffffffffffffffffffffffffffffff1673ffffffffffffffffffffffffffffffffffffffff1681526020019081526020016000208181548110611583577f4e487b7100000000000000000000000000000000000000000000000000000000600052603260045260246000fd5b9060005260206000209060050201600080820160006101000a81549073ffffffffffffffffffffffffffffffffffffffff02191690556001820160006115c99190611b86565b6002820160006115d99190611b86565b6003820160006115e99190611b86565b6004820160006115f99190611b86565b5050611603611a9a565b80600184604051611614919061217b565b9081526020016040518091039020600082015181600001908051906020019061163e929190611abb565b50602082015181600101908051906020019061165b929190611abb565b506040820151816002019080519060200190611678929190611abb565b50905050505050565b611689611bc6565b600282604051611699919061217b565b90815260200160405180910390206040518060400160405290816000820180546116c29061236e565b80601f01602080910402602001604051908101604052809291908181526020018280546116ee9061236e565b801561173b5780601f106117105761010080835404028352916020019161173b565b820191906000526020600020905b81548152906001019060200180831161171e57829003601f168201915b505050505081526020016001820180546117549061236e565b80601f01602080910402602001604051908101604052809291908181526020018280546117809061236e565b80156117cd5780601f106117a2576101008083540402835291602001916117cd565b820191906000526020600020905b8154815290600101906020018083116117b057829003601f168201915b5050505050815250509050919050565b60006001866040516117ef919061217b565b9081526020016040518091039020905084816000019080519060200190611817929190611abb565b5083816001019080519060200190611830929190611abb565b5082816002019080519060200190611849929190611abb565b506000805b6000803373ffffffffffffffffffffffffffffffffffffffff1673ffffffffffffffffffffffffffffffffffffffff168152602001908152602001600020805490508110156119585787805190602001206000803373ffffffffffffffffffffffffffffffffffffffff1673ffffffffffffffffffffffffffffffffffffffff1681526020019081526020016000208281548110611915577f4e487b7100000000000000000000000000000000000000000000000000000000600052603260045260246000fd5b90600052602060002090600502016002016040516119339190612164565b60405180910390201415611945578091505b8080611950906123d1565b91505061184e565b50846000803373ffffffffffffffffffffffffffffffffffffffff1673ffffffffffffffffffffffffffffffffffffffff16815260200190815260200160002082815481106119d0577f4e487b7100000000000000000000000000000000000000000000000000000000600052603260045260246000fd5b906000526020600020906005020160010190805190602001906119f4929190611abb565b50826000803373ffffffffffffffffffffffffffffffffffffffff1673ffffffffffffffffffffffffffffffffffffffff1681526020019081526020016000208281548110611a6c577f4e487b7100000000000000000000000000000000000000000000000000000000600052603260045260246000fd5b90600052602060002090600502016004019080519060200190611a90929190611abb565b5050505050505050565b60405180606001604052806060815260200160608152602001606081525090565b828054611ac79061236e565b90600052602060002090601f016020900481019282611ae95760008555611b30565b82601f10611b0257805160ff1916838001178555611b30565b82800160010185558215611b30579182015b82811115611b2f578251825591602001919060010190611b14565b5b509050611b3d9190611bfa565b5090565b6040518060a00160405280600073ffffffffffffffffffffffffffffffffffffffff168152602001606081526020016060815260200160608152602001606081525090565b508054611b929061236e565b6000825580601f10611ba45750611bc3565b601f016020900490600052602060002090810190611bc29190611bfa565b5b50565b604051806040016040528060608152602001606081525090565b604051806040016040528060608152602001606081525090565b5b80821115611c13576000816000905550600101611bfb565b5090565b6000611c2a611c258461223f565b61221a565b905082815260208101848484011115611c4257600080fd5b611c4d84828561232c565b509392505050565b600082601f830112611c6657600080fd5b8135611c76848260208601611c17565b91505092915050565b600060208284031215611c9157600080fd5b600082013567ffffffffffffffff811115611cab57600080fd5b611cb784828501611c55565b91505092915050565b60008060008060808587031215611cd657600080fd5b600085013567ffffffffffffffff811115611cf057600080fd5b611cfc87828801611c55565b945050602085013567ffffffffffffffff811115611d1957600080fd5b611d2587828801611c55565b935050604085013567ffffffffffffffff811115611d4257600080fd5b611d4e87828801611c55565b925050606085013567ffffffffffffffff811115611d6b57600080fd5b611d7787828801611c55565b91505092959194509250565b600080600080600060a08688031215611d9b57600080fd5b600086013567ffffffffffffffff811115611db557600080fd5b611dc188828901611c55565b955050602086013567ffffffffffffffff811115611dde57600080fd5b611dea88828901611c55565b945050604086013567ffffffffffffffff811115611e0757600080fd5b611e1388828901611c55565b935050606086013567ffffffffffffffff811115611e3057600080fd5b611e3c88828901611c55565b925050608086013567ffffffffffffffff811115611e5957600080fd5b611e6588828901611c55565b9150509295509295909350565b6000611e7e8383612037565b905092915050565b611e8f816122f0565b82525050565b6000611ea082612295565b611eaa81856122b8565b935083602082028501611ebc85612270565b8060005b85811015611ef85784840389528151611ed98582611e72565b9450611ee4836122ab565b925060208a01995050600181019050611ec0565b50829750879550505050505092915050565b60008154611f178161236e565b611f2181866122c9565b94506001821660008114611f3c5760018114611f4d57611f80565b60ff19831686528186019350611f80565b611f5685612280565b60005b83811015611f7857815481890152600182019150602081019050611f59565b838801955050505b50505092915050565b6000611f94826122a0565b611f9e81856122d4565b9350611fae81856020860161233b565b611fb7816124a7565b840191505092915050565b6000611fcd826122a0565b611fd781856122e5565b9350611fe781856020860161233b565b80840191505092915050565b600060408301600083015184820360008601526120108282611f89565b9150506020830151848203602086015261202a8282611f89565b9150508091505092915050565b600060a08301600083015161204f6000860182611e86565b50602083015184820360208601526120678282611f89565b915050604083015184820360408601526120818282611f89565b9150506060830151848203606086015261209b8282611f89565b915050608083015184820360808601526120b58282611f89565b9150508091505092915050565b600060408301600083015184820360008601526120df8282611f89565b915050602083015184820360208601526120f98282611f89565b9150508091505092915050565b600060608301600083015184820360008601526121238282611f89565b9150506020830151848203602086015261213d8282611f89565b915050604083015184820360408601526121578282611f89565b9150508091505092915050565b60006121708284611f0a565b915081905092915050565b60006121878284611fc2565b915081905092915050565b600060208201905081810360008301526121ac8184611e95565b905092915050565b600060208201905081810360008301526121ce8184611ff3565b905092915050565b600060208201905081810360008301526121f081846120c2565b905092915050565b600060208201905081810360008301526122128184612106565b905092915050565b6000612224612235565b905061223082826123a0565b919050565b6000604051905090565b600067ffffffffffffffff82111561225a57612259612478565b5b612263826124a7565b9050602081019050919050565b6000819050602082019050919050565b60008190508160005260206000209050919050565b600081519050919050565b600081519050919050565b6000602082019050919050565b600082825260208201905092915050565b600081905092915050565b600082825260208201905092915050565b600081905092915050565b60006122fb82612302565b9050919050565b600073ffffffffffffffffffffffffffffffffffffffff82169050919050565b6000819050919050565b82818337600083830152505050565b60005b8381101561235957808201518184015260208101905061233e565b83811115612368576000848401525b50505050565b6000600282049050600182168061238657607f821691505b6020821081141561239a57612399612449565b5b50919050565b6123a9826124a7565b810181811067ffffffffffffffff821117156123c8576123c7612478565b5b80604052505050565b60006123dc82612322565b91507fffffffffffffffffffffffffffffffffffffffffffffffffffffffffffffffff82141561240f5761240e61241a565b5b600182019050919050565b7f4e487b7100000000000000000000000000000000000000000000000000000000600052601160045260246000fd5b7f4e487b7100000000000000000000000000000000000000000000000000000000600052602260045260246000fd5b7f4e487b7100000000000000000000000000000000000000000000000000000000600052604160045260246000fd5b6000601f19601f830116905091905056fea2646970667358221220039a1f297f0dd1142fcddcc1766cb1f70377ff4162c9622377fe99f82ffbd6d564736f6c63430008040033",
  "linkReferences": {},
  "deployedLinkReferences": {}
}