{
  "_format": "hh-sol-artifact-1",
  "contractName": "UserVault",
  "sourceName": "contracts/UserVault.sol",
  "abi": [
    {
      "inputs": [
        {
          "internalType": "string",
          "name": "uid",
          "type": "string"
        },
        {
          "internalType": "string",
          "name": "hash",
          "type": "string"
        },
        {
          "internalType": "string",
          "name": "url",
          "type": "string"
        },
        {
          "internalType": "string",
          "name": "username",
          "type": "string"
        },
        {
          "internalType": "string",
          "name": "size",
          "type": "string"
        }
      ],
      "name": "createPassword",
      "outputs": [],
      "stateMutability": "payable",
      "type": "function"
    },
    {
      "inputs": [
        {
          "internalType": "string",
          "name": "uid",
          "type": "string"
        }
      ],
      "name": "deletePassword",
      "outputs": [],
      "stateMutability": "payable",
      "type": "function"
    },
    {
      "inputs": [
        {
          "internalType": "string",
          "name": "uid",
          "type": "string"
        },
        {
          "internalType": "string",
          "name": "hash",
          "type": "string"
        },
        {
          "internalType": "string",
          "name": "url",
          "type": "string"
        },
        {
          "internalType": "string",
          "name": "username",
          "type": "string"
        },
        {
          "internalType": "string",
          "name": "size",
          "type": "string"
        }
      ],
      "name": "editPassword",
      "outputs": [],
      "stateMutability": "payable",
      "type": "function"
    },
    {
      "inputs": [],
      "name": "getFiles",
      "outputs": [
        {
          "components": [
            {
              "internalType": "address",
              "name": "owner",
              "type": "address"
            },
            {
              "internalType": "string",
              "name": "name",
              "type": "string"
            },
            {
              "internalType": "string",
              "name": "uid",
              "type": "string"
            },
            {
              "internalType": "string",
              "name": "file_type",
              "type": "string"
            },
            {
              "internalType": "string",
              "name": "size",
              "type": "string"
            }
          ],
          "internalType": "struct UserVault.File[]",
          "name": "",
          "type": "tuple[]"
        }
      ],
      "stateMutability": "view",
      "type": "function"
    },
    {
      "inputs": [
        {
          "internalType": "string",
          "name": "uid",
          "type": "string"
        }
      ],
      "name": "getPassword",
      "outputs": [
        {
          "components": [
            {
              "internalType": "string",
              "name": "hash",
              "type": "string"
            },
            {
              "internalType": "string",
              "name": "url",
              "type": "string"
            },
            {
              "internalType": "string",
              "name": "username",
              "type": "string"
            }
          ],
          "internalType": "struct UserVault.Password",
          "name": "",
          "type": "tuple"
        }
      ],
      "stateMutability": "view",
      "type": "function"
    }
  ],
  "bytecode": "0x608060405234801561001057600080fd5b50611637806100206000396000f3fe60806040526004361061004a5760003560e01c806301b8c31c1461004f57806310a2288f1461008c5780632da96d73146100a8578063814eca5d146100d3578063f980299d146100ef575b600080fd5b34801561005b57600080fd5b5061007660048036038101906100719190610f57565b61010b565b6040516100839190611341565b60405180910390f35b6100a660048036038101906100a19190610f98565b6102f9565b005b3480156100b457600080fd5b506100bd61052d565b6040516100ca919061131f565b60405180910390f35b6100ed60048036038101906100e89190610f57565b610866565b005b61010960048036038101906101049190610f98565b610ae9565b005b610113610da6565b6001826040516101239190611308565b908152602001604051809103902060405180606001604052908160008201805461014c906114b7565b80601f0160208091040260200160405190810160405280929190818152602001828054610178906114b7565b80156101c55780601f1061019a576101008083540402835291602001916101c5565b820191906000526020600020905b8154815290600101906020018083116101a857829003601f168201915b505050505081526020016001820180546101de906114b7565b80601f016020809104026020016040519081016040528092919081815260200182805461020a906114b7565b80156102575780601f1061022c57610100808354040283529160200191610257565b820191906000526020600020905b81548152906001019060200180831161023a57829003601f168201915b50505050508152602001600282018054610270906114b7565b80601f016020809104026020016040519081016040528092919081815260200182805461029c906114b7565b80156102e95780601f106102be576101008083540402835291602001916102e9565b820191906000526020600020905b8154815290600101906020018083116102cc57829003601f168201915b5050505050815250509050919050565b600060018660405161030b9190611308565b9081526020016040518091039020905084816000019080519060200190610333929190610dc7565b508381600101908051906020019061034c929190610dc7565b5082816002019080519060200190610365929190610dc7565b5061036e610e4d565b33816000019073ffffffffffffffffffffffffffffffffffffffff16908173ffffffffffffffffffffffffffffffffffffffff16815250508481602001819052508681604001819052506040518060400160405280600881526020017f70617373776f726400000000000000000000000000000000000000000000000081525081606001819052508281608001819052506000803373ffffffffffffffffffffffffffffffffffffffff1673ffffffffffffffffffffffffffffffffffffffff16815260200190815260200160002081908060018154018082558091505060019003906000526020600020906005020160009091909190915060008201518160000160006101000a81548173ffffffffffffffffffffffffffffffffffffffff021916908373ffffffffffffffffffffffffffffffffffffffff16021790555060208201518160010190805190602001906104ca929190610dc7565b5060408201518160020190805190602001906104e7929190610dc7565b506060820151816003019080519060200190610504929190610dc7565b506080820151816004019080519060200190610521929190610dc7565b50505050505050505050565b60606000803373ffffffffffffffffffffffffffffffffffffffff1673ffffffffffffffffffffffffffffffffffffffff168152602001908152602001600020805480602002602001604051908101604052809291908181526020016000905b8282101561085d57838290600052602060002090600502016040518060a00160405290816000820160009054906101000a900473ffffffffffffffffffffffffffffffffffffffff1673ffffffffffffffffffffffffffffffffffffffff1673ffffffffffffffffffffffffffffffffffffffff168152602001600182018054610616906114b7565b80601f0160208091040260200160405190810160405280929190818152602001828054610642906114b7565b801561068f5780601f106106645761010080835404028352916020019161068f565b820191906000526020600020905b81548152906001019060200180831161067257829003601f168201915b505050505081526020016002820180546106a8906114b7565b80601f01602080910402602001604051908101604052809291908181526020018280546106d4906114b7565b80156107215780601f106106f657610100808354040283529160200191610721565b820191906000526020600020905b81548152906001019060200180831161070457829003601f168201915b5050505050815260200160038201805461073a906114b7565b80601f0160208091040260200160405190810160405280929190818152602001828054610766906114b7565b80156107b35780601f10610788576101008083540402835291602001916107b3565b820191906000526020600020905b81548152906001019060200180831161079657829003601f168201915b505050505081526020016004820180546107cc906114b7565b80601f01602080910402602001604051908101604052809291908181526020018280546107f8906114b7565b80156108455780601f1061081a57610100808354040283529160200191610845565b820191906000526020600020905b81548152906001019060200180831161082857829003601f168201915b5050505050815250508152602001906001019061058d565b50505050905090565b6000805b6000803373ffffffffffffffffffffffffffffffffffffffff1673ffffffffffffffffffffffffffffffffffffffff168152602001908152602001600020805490508110156109745782805190602001206000803373ffffffffffffffffffffffffffffffffffffffff1673ffffffffffffffffffffffffffffffffffffffff1681526020019081526020016000208281548110610931577f4e487b7100000000000000000000000000000000000000000000000000000000600052603260045260246000fd5b906000526020600020906005020160020160405161094f91906112f1565b60405180910390201415610961578091505b808061096c9061151a565b91505061086a565b506000803373ffffffffffffffffffffffffffffffffffffffff1673ffffffffffffffffffffffffffffffffffffffff16815260200190815260200160002081815481106109eb577f4e487b7100000000000000000000000000000000000000000000000000000000600052603260045260246000fd5b9060005260206000209060050201600080820160006101000a81549073ffffffffffffffffffffffffffffffffffffffff0219169055600182016000610a319190610e92565b600282016000610a419190610e92565b600382016000610a519190610e92565b600482016000610a619190610e92565b5050610a6b610da6565b80600184604051610a7c9190611308565b90815260200160405180910390206000820151816000019080519060200190610aa6929190610dc7565b506020820151816001019080519060200190610ac3929190610dc7565b506040820151816002019080519060200190610ae0929190610dc7565b50905050505050565b6000600186604051610afb9190611308565b9081526020016040518091039020905084816000019080519060200190610b23929190610dc7565b5083816001019080519060200190610b3c929190610dc7565b5082816002019080519060200190610b55929190610dc7565b506000805b6000803373ffffffffffffffffffffffffffffffffffffffff1673ffffffffffffffffffffffffffffffffffffffff16815260200190815260200160002080549050811015610c645787805190602001206000803373ffffffffffffffffffffffffffffffffffffffff1673ffffffffffffffffffffffffffffffffffffffff1681526020019081526020016000208281548110610c21577f4e487b7100000000000000000000000000000000000000000000000000000000600052603260045260246000fd5b9060005260206000209060050201600201604051610c3f91906112f1565b60405180910390201415610c51578091505b8080610c5c9061151a565b915050610b5a565b50846000803373ffffffffffffffffffffffffffffffffffffffff1673ffffffffffffffffffffffffffffffffffffffff1681526020019081526020016000208281548110610cdc577f4e487b7100000000000000000000000000000000000000000000000000000000600052603260045260246000fd5b90600052602060002090600502016001019080519060200190610d00929190610dc7565b50826000803373ffffffffffffffffffffffffffffffffffffffff1673ffffffffffffffffffffffffffffffffffffffff1681526020019081526020016000208281548110610d78577f4e487b7100000000000000000000000000000000000000000000000000000000600052603260045260246000fd5b90600052602060002090600502016004019080519060200190610d9c929190610dc7565b5050505050505050565b60405180606001604052806060815260200160608152602001606081525090565b828054610dd3906114b7565b90600052602060002090601f016020900481019282610df55760008555610e3c565b82601f10610e0e57805160ff1916838001178555610e3c565b82800160010185558215610e3c579182015b82811115610e3b578251825591602001919060010190610e20565b5b509050610e499190610ed2565b5090565b6040518060a00160405280600073ffffffffffffffffffffffffffffffffffffffff168152602001606081526020016060815260200160608152602001606081525090565b508054610e9e906114b7565b6000825580601f10610eb05750610ecf565b601f016020900490600052602060002090810190610ece9190610ed2565b5b50565b5b80821115610eeb576000816000905550600101610ed3565b5090565b6000610f02610efd84611388565b611363565b905082815260208101848484011115610f1a57600080fd5b610f25848285611475565b509392505050565b600082601f830112610f3e57600080fd5b8135610f4e848260208601610eef565b91505092915050565b600060208284031215610f6957600080fd5b600082013567ffffffffffffffff811115610f8357600080fd5b610f8f84828501610f2d565b91505092915050565b600080600080600060a08688031215610fb057600080fd5b600086013567ffffffffffffffff811115610fca57600080fd5b610fd688828901610f2d565b955050602086013567ffffffffffffffff811115610ff357600080fd5b610fff88828901610f2d565b945050604086013567ffffffffffffffff81111561101c57600080fd5b61102888828901610f2d565b935050606086013567ffffffffffffffff81111561104557600080fd5b61105188828901610f2d565b925050608086013567ffffffffffffffff81111561106e57600080fd5b61107a88828901610f2d565b9150509295509295909350565b60006110938383611208565b905092915050565b6110a481611439565b82525050565b60006110b5826113de565b6110bf8185611401565b9350836020820285016110d1856113b9565b8060005b8581101561110d57848403895281516110ee8582611087565b94506110f9836113f4565b925060208a019950506001810190506110d5565b50829750879550505050505092915050565b6000815461112c816114b7565b6111368186611412565b94506001821660008114611151576001811461116257611195565b60ff19831686528186019350611195565b61116b856113c9565b60005b8381101561118d5781548189015260018201915060208101905061116e565b838801955050505b50505092915050565b60006111a9826113e9565b6111b3818561141d565b93506111c3818560208601611484565b6111cc816115f0565b840191505092915050565b60006111e2826113e9565b6111ec818561142e565b93506111fc818560208601611484565b80840191505092915050565b600060a083016000830151611220600086018261109b565b5060208301518482036020860152611238828261119e565b91505060408301518482036040860152611252828261119e565b9150506060830151848203606086015261126c828261119e565b91505060808301518482036080860152611286828261119e565b9150508091505092915050565b600060608301600083015184820360008601526112b0828261119e565b915050602083015184820360208601526112ca828261119e565b915050604083015184820360408601526112e4828261119e565b9150508091505092915050565b60006112fd828461111f565b915081905092915050565b600061131482846111d7565b915081905092915050565b6000602082019050818103600083015261133981846110aa565b905092915050565b6000602082019050818103600083015261135b8184611293565b905092915050565b600061136d61137e565b905061137982826114e9565b919050565b6000604051905090565b600067ffffffffffffffff8211156113a3576113a26115c1565b5b6113ac826115f0565b9050602081019050919050565b6000819050602082019050919050565b60008190508160005260206000209050919050565b600081519050919050565b600081519050919050565b6000602082019050919050565b600082825260208201905092915050565b600081905092915050565b600082825260208201905092915050565b600081905092915050565b60006114448261144b565b9050919050565b600073ffffffffffffffffffffffffffffffffffffffff82169050919050565b6000819050919050565b82818337600083830152505050565b60005b838110156114a2578082015181840152602081019050611487565b838111156114b1576000848401525b50505050565b600060028204905060018216806114cf57607f821691505b602082108114156114e3576114e2611592565b5b50919050565b6114f2826115f0565b810181811067ffffffffffffffff82111715611511576115106115c1565b5b80604052505050565b60006115258261146b565b91507fffffffffffffffffffffffffffffffffffffffffffffffffffffffffffffffff82141561155857611557611563565b5b600182019050919050565b7f4e487b7100000000000000000000000000000000000000000000000000000000600052601160045260246000fd5b7f4e487b7100000000000000000000000000000000000000000000000000000000600052602260045260246000fd5b7f4e487b7100000000000000000000000000000000000000000000000000000000600052604160045260246000fd5b6000601f19601f830116905091905056fea2646970667358221220618d0a57915bc78501dd4ba883c89cb73af3924ba629c3cf31ad97d7a70959d364736f6c63430008040033",
  "linkReferences": {},
  "deployedLinkReferences": {}
}