{
  "_format": "hh-sol-artifact-1",
  "contractName": "UserVault",
  "sourceName": "contracts/UserVault.sol",
  "abi": [
    {
      "inputs": [
        {
          "internalType": "string",
          "name": "uid",
          "type": "string"
        },
        {
          "internalType": "string",
          "name": "name",
          "type": "string"
        },
        {
          "internalType": "string",
          "name": "image_type",
          "type": "string"
        },
        {
          "internalType": "string",
          "name": "size",
          "type": "string"
        }
      ],
      "name": "createImage",
      "outputs": [],
      "stateMutability": "payable",
      "type": "function"
    },
    {
      "inputs": [
        {
          "internalType": "string",
          "name": "uid",
          "type": "string"
        },
        {
          "internalType": "string",
          "name": "hash",
          "type": "string"
        },
        {
          "internalType": "string",
          "name": "url",
          "type": "string"
        },
        {
          "internalType": "string",
          "name": "username",
          "type": "string"
        },
        {
          "internalType": "string",
          "name": "size",
          "type": "string"
        }
      ],
      "name": "createPassword",
      "outputs": [],
      "stateMutability": "payable",
      "type": "function"
    },
    {
      "inputs": [
        {
          "internalType": "string",
          "name": "uid",
          "type": "string"
        }
      ],
      "name": "deleteImage",
      "outputs": [],
      "stateMutability": "payable",
      "type": "function"
    },
    {
      "inputs": [
        {
          "internalType": "string",
          "name": "uid",
          "type": "string"
        }
      ],
      "name": "deletePassword",
      "outputs": [],
      "stateMutability": "payable",
      "type": "function"
    },
    {
      "inputs": [
        {
          "internalType": "string",
          "name": "uid",
          "type": "string"
        },
        {
          "internalType": "string",
          "name": "hash",
          "type": "string"
        },
        {
          "internalType": "string",
          "name": "url",
          "type": "string"
        },
        {
          "internalType": "string",
          "name": "username",
          "type": "string"
        },
        {
          "internalType": "string",
          "name": "size",
          "type": "string"
        }
      ],
      "name": "editPassword",
      "outputs": [],
      "stateMutability": "payable",
      "type": "function"
    },
    {
      "inputs": [],
      "name": "getFiles",
      "outputs": [
        {
          "components": [
            {
              "internalType": "address",
              "name": "owner",
              "type": "address"
            },
            {
              "internalType": "string",
              "name": "name",
              "type": "string"
            },
            {
              "internalType": "string",
              "name": "uid",
              "type": "string"
            },
            {
              "internalType": "string",
              "name": "file_type",
              "type": "string"
            },
            {
              "internalType": "string",
              "name": "size",
              "type": "string"
            }
          ],
          "internalType": "struct UserVault.File[]",
          "name": "",
          "type": "tuple[]"
        }
      ],
      "stateMutability": "view",
      "type": "function"
    },
    {
      "inputs": [
        {
          "internalType": "string",
          "name": "uid",
          "type": "string"
        }
      ],
      "name": "getImage",
      "outputs": [
        {
          "components": [
            {
              "internalType": "string",
              "name": "name",
              "type": "string"
            },
            {
              "internalType": "string",
              "name": "image_type",
              "type": "string"
            }
          ],
          "internalType": "struct UserVault.Image",
          "name": "",
          "type": "tuple"
        }
      ],
      "stateMutability": "view",
      "type": "function"
    },
    {
      "inputs": [
        {
          "internalType": "string",
          "name": "uid",
          "type": "string"
        }
      ],
      "name": "getPassword",
      "outputs": [
        {
          "components": [
            {
              "internalType": "string",
              "name": "hash",
              "type": "string"
            },
            {
              "internalType": "string",
              "name": "url",
              "type": "string"
            },
            {
              "internalType": "string",
              "name": "username",
              "type": "string"
            }
          ],
          "internalType": "struct UserVault.Password",
          "name": "",
          "type": "tuple"
        }
      ],
      "stateMutability": "view",
      "type": "function"
    }
  ],
  "bytecode": "0x608060405234801561001057600080fd5b50611dfc806100206000396000f3fe60806040526004361061007b5760003560e01c80637e196f111161004e5780637e196f1114610120578063814eca5d1461013c578063e802bf7d14610158578063f980299d146101955761007b565b806301b8c31c1461008057806310a2288f146100bd5780631e2de337146100d95780632da96d73146100f5575b600080fd5b34801561008c57600080fd5b506100a760048036038101906100a291906115f3565b6101b1565b6040516100b49190611b06565b60405180910390f35b6100d760048036038101906100d291906116f7565b61039f565b005b6100f360048036038101906100ee91906115f3565b6105d3565b005b34801561010157600080fd5b5061010a610839565b6040516101179190611ac2565b60405180910390f35b61013a60048036038101906101359190611634565b610b72565b005b610156600480360381019061015191906115f3565b610d8c565b005b34801561016457600080fd5b5061017f600480360381019061017a91906115f3565b61100f565b60405161018c9190611ae4565b60405180910390f35b6101af60048036038101906101aa91906116f7565b61116b565b005b6101b9611428565b6001826040516101c99190611aab565b90815260200160405180910390206040518060600160405290816000820180546101f290611c7c565b80601f016020809104026020016040519081016040528092919081815260200182805461021e90611c7c565b801561026b5780601f106102405761010080835404028352916020019161026b565b820191906000526020600020905b81548152906001019060200180831161024e57829003601f168201915b5050505050815260200160018201805461028490611c7c565b80601f01602080910402602001604051908101604052809291908181526020018280546102b090611c7c565b80156102fd5780601f106102d2576101008083540402835291602001916102fd565b820191906000526020600020905b8154815290600101906020018083116102e057829003601f168201915b5050505050815260200160028201805461031690611c7c565b80601f016020809104026020016040519081016040528092919081815260200182805461034290611c7c565b801561038f5780601f106103645761010080835404028352916020019161038f565b820191906000526020600020905b81548152906001019060200180831161037257829003601f168201915b5050505050815250509050919050565b60006001866040516103b19190611aab565b90815260200160405180910390209050848160000190805190602001906103d9929190611449565b50838160010190805190602001906103f2929190611449565b508281600201908051906020019061040b929190611449565b506104146114cf565b33816000019073ffffffffffffffffffffffffffffffffffffffff16908173ffffffffffffffffffffffffffffffffffffffff16815250508481602001819052508681604001819052506040518060400160405280600881526020017f70617373776f726400000000000000000000000000000000000000000000000081525081606001819052508281608001819052506000803373ffffffffffffffffffffffffffffffffffffffff1673ffffffffffffffffffffffffffffffffffffffff16815260200190815260200160002081908060018154018082558091505060019003906000526020600020906005020160009091909190915060008201518160000160006101000a81548173ffffffffffffffffffffffffffffffffffffffff021916908373ffffffffffffffffffffffffffffffffffffffff1602179055506020820151816001019080519060200190610570929190611449565b50604082015181600201908051906020019061058d929190611449565b5060608201518160030190805190602001906105aa929190611449565b5060808201518160040190805190602001906105c7929190611449565b50505050505050505050565b6000805b6000803373ffffffffffffffffffffffffffffffffffffffff1673ffffffffffffffffffffffffffffffffffffffff168152602001908152602001600020805490508110156106e15782805190602001206000803373ffffffffffffffffffffffffffffffffffffffff1673ffffffffffffffffffffffffffffffffffffffff168152602001908152602001600020828154811061069e577f4e487b7100000000000000000000000000000000000000000000000000000000600052603260045260246000fd5b90600052602060002090600502016002016040516106bc9190611a94565b604051809103902014156106ce578091505b80806106d990611cdf565b9150506105d7565b506000803373ffffffffffffffffffffffffffffffffffffffff1673ffffffffffffffffffffffffffffffffffffffff1681526020019081526020016000208181548110610758577f4e487b7100000000000000000000000000000000000000000000000000000000600052603260045260246000fd5b9060005260206000209060050201600080820160006101000a81549073ffffffffffffffffffffffffffffffffffffffff021916905560018201600061079e9190611514565b6002820160006107ae9190611514565b6003820160006107be9190611514565b6004820160006107ce9190611514565b50506107d8611554565b806002846040516107e99190611aab565b90815260200160405180910390206000820151816000019080519060200190610813929190611449565b506020820151816001019080519060200190610830929190611449565b50905050505050565b60606000803373ffffffffffffffffffffffffffffffffffffffff1673ffffffffffffffffffffffffffffffffffffffff168152602001908152602001600020805480602002602001604051908101604052809291908181526020016000905b82821015610b6957838290600052602060002090600502016040518060a00160405290816000820160009054906101000a900473ffffffffffffffffffffffffffffffffffffffff1673ffffffffffffffffffffffffffffffffffffffff1673ffffffffffffffffffffffffffffffffffffffff16815260200160018201805461092290611c7c565b80601f016020809104026020016040519081016040528092919081815260200182805461094e90611c7c565b801561099b5780601f106109705761010080835404028352916020019161099b565b820191906000526020600020905b81548152906001019060200180831161097e57829003601f168201915b505050505081526020016002820180546109b490611c7c565b80601f01602080910402602001604051908101604052809291908181526020018280546109e090611c7c565b8015610a2d5780601f10610a0257610100808354040283529160200191610a2d565b820191906000526020600020905b815481529060010190602001808311610a1057829003601f168201915b50505050508152602001600382018054610a4690611c7c565b80601f0160208091040260200160405190810160405280929190818152602001828054610a7290611c7c565b8015610abf5780601f10610a9457610100808354040283529160200191610abf565b820191906000526020600020905b815481529060010190602001808311610aa257829003601f168201915b50505050508152602001600482018054610ad890611c7c565b80601f0160208091040260200160405190810160405280929190818152602001828054610b0490611c7c565b8015610b515780601f10610b2657610100808354040283529160200191610b51565b820191906000526020600020905b815481529060010190602001808311610b3457829003601f168201915b50505050508152505081526020019060010190610899565b50505050905090565b6000600285604051610b849190611aab565b9081526020016040518091039020905083816000019080519060200190610bac929190611449565b5082816001019080519060200190610bc5929190611449565b50610bce6114cf565b33816000019073ffffffffffffffffffffffffffffffffffffffff16908173ffffffffffffffffffffffffffffffffffffffff16815250508481602001819052508581604001819052506040518060400160405280600581526020017f696d61676500000000000000000000000000000000000000000000000000000081525081606001819052508281608001819052506000803373ffffffffffffffffffffffffffffffffffffffff1673ffffffffffffffffffffffffffffffffffffffff16815260200190815260200160002081908060018154018082558091505060019003906000526020600020906005020160009091909190915060008201518160000160006101000a81548173ffffffffffffffffffffffffffffffffffffffff021916908373ffffffffffffffffffffffffffffffffffffffff1602179055506020820151816001019080519060200190610d2a929190611449565b506040820151816002019080519060200190610d47929190611449565b506060820151816003019080519060200190610d64929190611449565b506080820151816004019080519060200190610d81929190611449565b505050505050505050565b6000805b6000803373ffffffffffffffffffffffffffffffffffffffff1673ffffffffffffffffffffffffffffffffffffffff16815260200190815260200160002080549050811015610e9a5782805190602001206000803373ffffffffffffffffffffffffffffffffffffffff1673ffffffffffffffffffffffffffffffffffffffff1681526020019081526020016000208281548110610e57577f4e487b7100000000000000000000000000000000000000000000000000000000600052603260045260246000fd5b9060005260206000209060050201600201604051610e759190611a94565b60405180910390201415610e87578091505b8080610e9290611cdf565b915050610d90565b506000803373ffffffffffffffffffffffffffffffffffffffff1673ffffffffffffffffffffffffffffffffffffffff1681526020019081526020016000208181548110610f11577f4e487b7100000000000000000000000000000000000000000000000000000000600052603260045260246000fd5b9060005260206000209060050201600080820160006101000a81549073ffffffffffffffffffffffffffffffffffffffff0219169055600182016000610f579190611514565b600282016000610f679190611514565b600382016000610f779190611514565b600482016000610f879190611514565b5050610f91611428565b80600184604051610fa29190611aab565b90815260200160405180910390206000820151816000019080519060200190610fcc929190611449565b506020820151816001019080519060200190610fe9929190611449565b506040820151816002019080519060200190611006929190611449565b50905050505050565b611017611554565b6002826040516110279190611aab565b908152602001604051809103902060405180604001604052908160008201805461105090611c7c565b80601f016020809104026020016040519081016040528092919081815260200182805461107c90611c7c565b80156110c95780601f1061109e576101008083540402835291602001916110c9565b820191906000526020600020905b8154815290600101906020018083116110ac57829003601f168201915b505050505081526020016001820180546110e290611c7c565b80601f016020809104026020016040519081016040528092919081815260200182805461110e90611c7c565b801561115b5780601f106111305761010080835404028352916020019161115b565b820191906000526020600020905b81548152906001019060200180831161113e57829003601f168201915b5050505050815250509050919050565b600060018660405161117d9190611aab565b90815260200160405180910390209050848160000190805190602001906111a5929190611449565b50838160010190805190602001906111be929190611449565b50828160020190805190602001906111d7929190611449565b506000805b6000803373ffffffffffffffffffffffffffffffffffffffff1673ffffffffffffffffffffffffffffffffffffffff168152602001908152602001600020805490508110156112e65787805190602001206000803373ffffffffffffffffffffffffffffffffffffffff1673ffffffffffffffffffffffffffffffffffffffff16815260200190815260200160002082815481106112a3577f4e487b7100000000000000000000000000000000000000000000000000000000600052603260045260246000fd5b90600052602060002090600502016002016040516112c19190611a94565b604051809103902014156112d3578091505b80806112de90611cdf565b9150506111dc565b50846000803373ffffffffffffffffffffffffffffffffffffffff1673ffffffffffffffffffffffffffffffffffffffff168152602001908152602001600020828154811061135e577f4e487b7100000000000000000000000000000000000000000000000000000000600052603260045260246000fd5b90600052602060002090600502016001019080519060200190611382929190611449565b50826000803373ffffffffffffffffffffffffffffffffffffffff1673ffffffffffffffffffffffffffffffffffffffff16815260200190815260200160002082815481106113fa577f4e487b7100000000000000000000000000000000000000000000000000000000600052603260045260246000fd5b9060005260206000209060050201600401908051906020019061141e929190611449565b5050505050505050565b60405180606001604052806060815260200160608152602001606081525090565b82805461145590611c7c565b90600052602060002090601f01602090048101928261147757600085556114be565b82601f1061149057805160ff19168380011785556114be565b828001600101855582156114be579182015b828111156114bd5782518255916020019190600101906114a2565b5b5090506114cb919061156e565b5090565b6040518060a00160405280600073ffffffffffffffffffffffffffffffffffffffff168152602001606081526020016060815260200160608152602001606081525090565b50805461152090611c7c565b6000825580601f106115325750611551565b601f016020900490600052602060002090810190611550919061156e565b5b50565b604051806040016040528060608152602001606081525090565b5b8082111561158757600081600090555060010161156f565b5090565b600061159e61159984611b4d565b611b28565b9050828152602081018484840111156115b657600080fd5b6115c1848285611c3a565b509392505050565b600082601f8301126115da57600080fd5b81356115ea84826020860161158b565b91505092915050565b60006020828403121561160557600080fd5b600082013567ffffffffffffffff81111561161f57600080fd5b61162b848285016115c9565b91505092915050565b6000806000806080858703121561164a57600080fd5b600085013567ffffffffffffffff81111561166457600080fd5b611670878288016115c9565b945050602085013567ffffffffffffffff81111561168d57600080fd5b611699878288016115c9565b935050604085013567ffffffffffffffff8111156116b657600080fd5b6116c2878288016115c9565b925050606085013567ffffffffffffffff8111156116df57600080fd5b6116eb878288016115c9565b91505092959194509250565b600080600080600060a0868803121561170f57600080fd5b600086013567ffffffffffffffff81111561172957600080fd5b611735888289016115c9565b955050602086013567ffffffffffffffff81111561175257600080fd5b61175e888289016115c9565b945050604086013567ffffffffffffffff81111561177b57600080fd5b611787888289016115c9565b935050606086013567ffffffffffffffff8111156117a457600080fd5b6117b0888289016115c9565b925050608086013567ffffffffffffffff8111156117cd57600080fd5b6117d9888289016115c9565b9150509295509295909350565b60006117f28383611967565b905092915050565b61180381611bfe565b82525050565b600061181482611ba3565b61181e8185611bc6565b93508360208202850161183085611b7e565b8060005b8581101561186c578484038952815161184d85826117e6565b945061185883611bb9565b925060208a01995050600181019050611834565b50829750879550505050505092915050565b6000815461188b81611c7c565b6118958186611bd7565b945060018216600081146118b057600181146118c1576118f4565b60ff198316865281860193506118f4565b6118ca85611b8e565b60005b838110156118ec578154818901526001820191506020810190506118cd565b838801955050505b50505092915050565b600061190882611bae565b6119128185611be2565b9350611922818560208601611c49565b61192b81611db5565b840191505092915050565b600061194182611bae565b61194b8185611bf3565b935061195b818560208601611c49565b80840191505092915050565b600060a08301600083015161197f60008601826117fa565b506020830151848203602086015261199782826118fd565b915050604083015184820360408601526119b182826118fd565b915050606083015184820360608601526119cb82826118fd565b915050608083015184820360808601526119e582826118fd565b9150508091505092915050565b60006040830160008301518482036000860152611a0f82826118fd565b91505060208301518482036020860152611a2982826118fd565b9150508091505092915050565b60006060830160008301518482036000860152611a5382826118fd565b91505060208301518482036020860152611a6d82826118fd565b91505060408301518482036040860152611a8782826118fd565b9150508091505092915050565b6000611aa0828461187e565b915081905092915050565b6000611ab78284611936565b915081905092915050565b60006020820190508181036000830152611adc8184611809565b905092915050565b60006020820190508181036000830152611afe81846119f2565b905092915050565b60006020820190508181036000830152611b208184611a36565b905092915050565b6000611b32611b43565b9050611b3e8282611cae565b919050565b6000604051905090565b600067ffffffffffffffff821115611b6857611b67611d86565b5b611b7182611db5565b9050602081019050919050565b6000819050602082019050919050565b60008190508160005260206000209050919050565b600081519050919050565b600081519050919050565b6000602082019050919050565b600082825260208201905092915050565b600081905092915050565b600082825260208201905092915050565b600081905092915050565b6000611c0982611c10565b9050919050565b600073ffffffffffffffffffffffffffffffffffffffff82169050919050565b6000819050919050565b82818337600083830152505050565b60005b83811015611c67578082015181840152602081019050611c4c565b83811115611c76576000848401525b50505050565b60006002820490506001821680611c9457607f821691505b60208210811415611ca857611ca7611d57565b5b50919050565b611cb782611db5565b810181811067ffffffffffffffff82111715611cd657611cd5611d86565b5b80604052505050565b6000611cea82611c30565b91507fffffffffffffffffffffffffffffffffffffffffffffffffffffffffffffffff821415611d1d57611d1c611d28565b5b600182019050919050565b7f4e487b7100000000000000000000000000000000000000000000000000000000600052601160045260246000fd5b7f4e487b7100000000000000000000000000000000000000000000000000000000600052602260045260246000fd5b7f4e487b7100000000000000000000000000000000000000000000000000000000600052604160045260246000fd5b6000601f19601f830116905091905056fea2646970667358221220064847f9eba12e1315fdffb4af9c200e44ea3fc318f11bc9cff57e6c89ac2db264736f6c63430008040033",
  "linkReferences": {},
  "deployedLinkReferences": {}
}