{
  "_format": "hh-sol-artifact-1",
  "contractName": "KeyRegistrar",
  "sourceName": "contracts/KeyRegistrar.sol",
  "abi": [
    {
      "inputs": [],
      "name": "getKey",
      "outputs": [
        {
          "internalType": "string",
          "name": "",
          "type": "string"
        }
      ],
      "stateMutability": "view",
      "type": "function"
    },
    {
      "inputs": [
        {
          "internalType": "string",
          "name": "key",
          "type": "string"
        }
      ],
      "name": "setKey",
      "outputs": [],
      "stateMutability": "payable",
      "type": "function"
    }
  ],
  "bytecode": "0x608060405234801561001057600080fd5b5061062c806100206000396000f3fe6080604052600436106100295760003560e01c806382678dd61461002e578063af42d10614610059575b600080fd5b34801561003a57600080fd5b50610043610075565b604051610050919061041c565b60405180910390f35b610073600480360381019061006e9190610378565b61014c565b005b6060610080336101ab565b6000803373ffffffffffffffffffffffffffffffffffffffff1673ffffffffffffffffffffffffffffffffffffffff16815260200190815260200160002080546100c990610524565b80601f01602080910402602001604051908101604052809291908181526020018280546100f590610524565b80156101425780601f1061011757610100808354040283529160200191610142565b820191906000526020600020905b81548152906001019060200180831161012557829003601f168201915b5050505050905090565b610155336101ab565b806000803373ffffffffffffffffffffffffffffffffffffffff1673ffffffffffffffffffffffffffffffffffffffff16815260200190815260200160002090805190602001906101a792919061026d565b5050565b610241816040516024016101bf9190610401565b6040516020818303038152906040527f2c2ecbc2000000000000000000000000000000000000000000000000000000007bffffffffffffffffffffffffffffffffffffffffffffffffffffffff19166020820180517bffffffffffffffffffffffffffffffffffffffffffffffffffffffff8381831617835250505050610244565b50565b60008151905060006a636f6e736f6c652e6c6f679050602083016000808483855afa5050505050565b82805461027990610524565b90600052602060002090601f01602090048101928261029b57600085556102e2565b82601f106102b457805160ff19168380011785556102e2565b828001600101855582156102e2579182015b828111156102e15782518255916020019190600101906102c6565b5b5090506102ef91906102f3565b5090565b5b8082111561030c5760008160009055506001016102f4565b5090565b600061032361031e84610463565b61043e565b90508281526020810184848401111561033b57600080fd5b6103468482856104e2565b509392505050565b600082601f83011261035f57600080fd5b813561036f848260208601610310565b91505092915050565b60006020828403121561038a57600080fd5b600082013567ffffffffffffffff8111156103a457600080fd5b6103b08482850161034e565b91505092915050565b6103c2816104b0565b82525050565b60006103d382610494565b6103dd818561049f565b93506103ed8185602086016104f1565b6103f6816105e5565b840191505092915050565b600060208201905061041660008301846103b9565b92915050565b6000602082019050818103600083015261043681846103c8565b905092915050565b6000610448610459565b90506104548282610556565b919050565b6000604051905090565b600067ffffffffffffffff82111561047e5761047d6105b6565b5b610487826105e5565b9050602081019050919050565b600081519050919050565b600082825260208201905092915050565b60006104bb826104c2565b9050919050565b600073ffffffffffffffffffffffffffffffffffffffff82169050919050565b82818337600083830152505050565b60005b8381101561050f5780820151818401526020810190506104f4565b8381111561051e576000848401525b50505050565b6000600282049050600182168061053c57607f821691505b602082108114156105505761054f610587565b5b50919050565b61055f826105e5565b810181811067ffffffffffffffff8211171561057e5761057d6105b6565b5b80604052505050565b7f4e487b7100000000000000000000000000000000000000000000000000000000600052602260045260246000fd5b7f4e487b7100000000000000000000000000000000000000000000000000000000600052604160045260246000fd5b6000601f19601f830116905091905056fea2646970667358221220e89a3ac03732db41cf6280ec8e0aeff7c7dd2d223b33714b72e04f097e7d63f864736f6c63430008040033",
  "linkReferences": {},
  "deployedLinkReferences": {}
}